{
  "_format": "hh-sol-artifact-1",
  "contractName": "Transactions",
  "sourceName": "contracts/Transactions.sol",
  "abi": [
    {
      "anonymous": false,
      "inputs": [
        {
          "indexed": false,
          "internalType": "address",
          "name": "from",
          "type": "address"
        },
        {
          "indexed": false,
          "internalType": "address",
          "name": "receiver",
          "type": "address"
        },
        {
          "indexed": false,
          "internalType": "uint256",
          "name": "amount",
          "type": "uint256"
        },
        {
          "indexed": false,
          "internalType": "string",
          "name": "message",
          "type": "string"
        },
        {
          "indexed": false,
          "internalType": "uint256",
          "name": "timestamp",
          "type": "uint256"
        },
        {
          "indexed": false,
          "internalType": "string",
          "name": "keyword",
          "type": "string"
        }
      ],
      "name": "Transfer",
      "type": "event"
    },
    {
      "inputs": [
        {
          "internalType": "address payable",
          "name": "receiver",
          "type": "address"
        },
        {
          "internalType": "uint256",
          "name": "amount",
          "type": "uint256"
        },
        {
          "internalType": "string",
          "name": "message",
          "type": "string"
        },
        {
          "internalType": "string",
          "name": "keyword",
          "type": "string"
        }
      ],
      "name": "addToBlockchain",
      "outputs": [],
      "stateMutability": "payable",
      "type": "function"
    },
    {
      "inputs": [],
      "name": "getAllTransactions",
      "outputs": [
        {
          "components": [
            {
              "internalType": "address",
              "name": "from",
              "type": "address"
            },
            {
              "internalType": "address",
              "name": "receiver",
              "type": "address"
            },
            {
              "internalType": "uint256",
              "name": "amount",
              "type": "uint256"
            },
            {
              "internalType": "string",
              "name": "message",
              "type": "string"
            },
            {
              "internalType": "uint256",
              "name": "timestamp",
              "type": "uint256"
            },
            {
              "internalType": "string",
              "name": "keyword",
              "type": "string"
            }
          ],
          "internalType": "struct Transactions.TransferStruct[]",
          "name": "",
          "type": "tuple[]"
        }
      ],
      "stateMutability": "view",
      "type": "function"
    },
    {
      "inputs": [],
      "name": "getTransactionCount",
      "outputs": [
        {
          "internalType": "uint256",
          "name": "",
          "type": "uint256"
        }
      ],
      "stateMutability": "view",
      "type": "function"
    }
  ],
  "bytecode": "0x608060405234801561001057600080fd5b50610c1a806100206000396000f3fe6080604052600436106100345760003560e01c806327506f53146100395780632e7700f014610064578063cc2d7ead1461008f575b600080fd5b34801561004557600080fd5b5061004e6100ab565b60405161005b91906108c6565b60405180910390f35b34801561007057600080fd5b506100796102ee565b60405161008691906108e8565b60405180910390f35b6100a960048036038101906100a491906105ee565b6102f7565b005b60606001805480602002602001604051908101604052809291908181526020016000905b828210156102e557838290600052602060002090600602016040518060c00160405290816000820160009054906101000a900473ffffffffffffffffffffffffffffffffffffffff1673ffffffffffffffffffffffffffffffffffffffff1673ffffffffffffffffffffffffffffffffffffffff1681526020016001820160009054906101000a900473ffffffffffffffffffffffffffffffffffffffff1673ffffffffffffffffffffffffffffffffffffffff1673ffffffffffffffffffffffffffffffffffffffff168152602001600282015481526020016003820180546101b890610ae6565b80601f01602080910402602001604051908101604052809291908181526020018280546101e490610ae6565b80156102315780601f1061020657610100808354040283529160200191610231565b820191906000526020600020905b81548152906001019060200180831161021457829003601f168201915b505050505081526020016004820154815260200160058201805461025490610ae6565b80601f016020809104026020016040519081016040528092919081815260200182805461028090610ae6565b80156102cd5780601f106102a2576101008083540402835291602001916102cd565b820191906000526020600020905b8154815290600101906020018083116102b057829003601f168201915b505050505081525050815260200190600101906100cf565b50505050905090565b60008054905090565b600160008082825461030991906109ca565b9250508190555060016040518060c001604052803373ffffffffffffffffffffffffffffffffffffffff1681526020018673ffffffffffffffffffffffffffffffffffffffff16815260200185815260200184815260200142815260200183815250908060018154018082558091505060019003906000526020600020906006020160009091909190915060008201518160000160006101000a81548173ffffffffffffffffffffffffffffffffffffffff021916908373ffffffffffffffffffffffffffffffffffffffff16021790555060208201518160010160006101000a81548173ffffffffffffffffffffffffffffffffffffffff021916908373ffffffffffffffffffffffffffffffffffffffff1602179055506040820151816002015560608201518160030190805190602001906104489291906104b9565b506080820151816004015560a082015181600501908051906020019061046f9291906104b9565b5050507f416cfa4330a4565f45c2fd2dd4826a83a37443aba2ce6f79477c7355afac35fa3385858542866040516104ab96959493929190610857565b60405180910390a150505050565b8280546104c590610ae6565b90600052602060002090601f0160209004810192826104e7576000855561052e565b82601f1061050057805160ff191683800117855561052e565b8280016001018555821561052e579182015b8281111561052d578251825591602001919060010190610512565b5b50905061053b919061053f565b5090565b5b80821115610558576000816000905550600101610540565b5090565b600061056f61056a84610934565b610903565b90508281526020810184848401111561058757600080fd5b610592848285610aa4565b509392505050565b6000813590506105a981610bb6565b92915050565b600082601f8301126105c057600080fd5b81356105d084826020860161055c565b91505092915050565b6000813590506105e881610bcd565b92915050565b6000806000806080858703121561060457600080fd5b60006106128782880161059a565b9450506020610623878288016105d9565b935050604085013567ffffffffffffffff81111561064057600080fd5b61064c878288016105af565b925050606085013567ffffffffffffffff81111561066957600080fd5b610675878288016105af565b91505092959194509250565b600061068d83836107a9565b905092915050565b61069e81610a6e565b82525050565b6106ad81610a20565b82525050565b6106bc81610a20565b82525050565b60006106cd82610974565b6106d78185610997565b9350836020820285016106e985610964565b8060005b8581101561072557848403895281516107068582610681565b94506107118361098a565b925060208a019950506001810190506106ed565b50829750879550505050505092915050565b60006107428261097f565b61074c81856109a8565b935061075c818560208601610ab3565b61076581610ba5565b840191505092915050565b600061077b8261097f565b61078581856109b9565b9350610795818560208601610ab3565b61079e81610ba5565b840191505092915050565b600060c0830160008301516107c160008601826106a4565b5060208301516107d460208601826106a4565b5060408301516107e76040860182610839565b50606083015184820360608601526107ff8282610737565b91505060808301516108146080860182610839565b5060a083015184820360a086015261082c8282610737565b9150508091505092915050565b61084281610a64565b82525050565b61085181610a64565b82525050565b600060c08201905061086c60008301896106b3565b6108796020830188610695565b6108866040830187610848565b81810360608301526108988186610770565b90506108a76080830185610848565b81810360a08301526108b98184610770565b9050979650505050505050565b600060208201905081810360008301526108e081846106c2565b905092915050565b60006020820190506108fd6000830184610848565b92915050565b6000604051905081810181811067ffffffffffffffff8211171561092a57610929610b76565b5b8060405250919050565b600067ffffffffffffffff82111561094f5761094e610b76565b5b601f19601f8301169050602081019050919050565b6000819050602082019050919050565b600081519050919050565b600081519050919050565b6000602082019050919050565b600082825260208201905092915050565b600082825260208201905092915050565b600082825260208201905092915050565b60006109d582610a64565b91506109e083610a64565b9250827fffffffffffffffffffffffffffffffffffffffffffffffffffffffffffffffff03821115610a1557610a14610b18565b5b828201905092915050565b6000610a2b82610a44565b9050919050565b6000610a3d82610a44565b9050919050565b600073ffffffffffffffffffffffffffffffffffffffff82169050919050565b6000819050919050565b6000610a7982610a80565b9050919050565b6000610a8b82610a92565b9050919050565b6000610a9d82610a44565b9050919050565b82818337600083830152505050565b60005b83811015610ad1578082015181840152602081019050610ab6565b83811115610ae0576000848401525b50505050565b60006002820490506001821680610afe57607f821691505b60208210811415610b1257610b11610b47565b5b50919050565b7f4e487b7100000000000000000000000000000000000000000000000000000000600052601160045260246000fd5b7f4e487b7100000000000000000000000000000000000000000000000000000000600052602260045260246000fd5b7f4e487b7100000000000000000000000000000000000000000000000000000000600052604160045260246000fd5b6000601f19601f8301169050919050565b610bbf81610a32565b8114610bca57600080fd5b50565b610bd681610a64565b8114610be157600080fd5b5056fea2646970667358221220ae34d51147cd6b6c7f36df93812af8e2e676f6e178f4f2d1ac709c4c36dab93764736f6c63430008000033",
  "linkReferences": {},
  "deployedLinkReferences": {}
}