{
  "_format": "hh-sol-artifact-1",
  "contractName": "Transactions",
  "sourceName": "contracts/Transactions.sol",
  "abi": [
    {
      "anonymous": false,
      "inputs": [
        {
          "indexed": false,
          "internalType": "address",
          "name": "from",
          "type": "address"
        },
        {
          "indexed": false,
          "internalType": "address",
          "name": "to",
          "type": "address"
        },
        {
          "indexed": false,
          "internalType": "uint256",
          "name": "amount",
          "type": "uint256"
        },
        {
          "indexed": false,
          "internalType": "string",
          "name": "message",
          "type": "string"
        },
        {
          "indexed": false,
          "internalType": "uint256",
          "name": "timestamp",
          "type": "uint256"
        },
        {
          "indexed": false,
          "internalType": "string",
          "name": "keyword",
          "type": "string"
        }
      ],
      "name": "Transfer",
      "type": "event"
    },
    {
      "inputs": [
        {
          "internalType": "address payable",
          "name": "receiver",
          "type": "address"
        },
        {
          "internalType": "uint256",
          "name": "amount",
          "type": "uint256"
        },
        {
          "internalType": "string",
          "name": "message",
          "type": "string"
        },
        {
          "internalType": "string",
          "name": "keyword",
          "type": "string"
        }
      ],
      "name": "addToBlockchain",
      "outputs": [],
      "stateMutability": "payable",
      "type": "function"
    },
    {
      "inputs": [],
      "name": "getAllTransactions",
      "outputs": [
        {
          "components": [
            {
              "internalType": "address",
              "name": "sender",
              "type": "address"
            },
            {
              "internalType": "address",
              "name": "receiver",
              "type": "address"
            },
            {
              "internalType": "uint256",
              "name": "amount",
              "type": "uint256"
            },
            {
              "internalType": "string",
              "name": "message",
              "type": "string"
            },
            {
              "internalType": "uint256",
              "name": "timestamp",
              "type": "uint256"
            },
            {
              "internalType": "string",
              "name": "keyword",
              "type": "string"
            }
          ],
          "internalType": "struct Transactions.TransferStruct[]",
          "name": "",
          "type": "tuple[]"
        }
      ],
      "stateMutability": "view",
      "type": "function"
    },
    {
      "inputs": [],
      "name": "getTransactionCount",
      "outputs": [
        {
          "internalType": "uint256",
          "name": "",
          "type": "uint256"
        }
      ],
      "stateMutability": "view",
      "type": "function"
    },
    {
      "inputs": [
        {
          "internalType": "uint256",
          "name": "",
          "type": "uint256"
        }
      ],
      "name": "transactions",
      "outputs": [
        {
          "internalType": "address",
          "name": "sender",
          "type": "address"
        },
        {
          "internalType": "address",
          "name": "receiver",
          "type": "address"
        },
        {
          "internalType": "uint256",
          "name": "amount",
          "type": "uint256"
        },
        {
          "internalType": "string",
          "name": "message",
          "type": "string"
        },
        {
          "internalType": "uint256",
          "name": "timestamp",
          "type": "uint256"
        },
        {
          "internalType": "string",
          "name": "keyword",
          "type": "string"
        }
      ],
      "stateMutability": "view",
      "type": "function"
    }
  ],
  "bytecode": "0x608060405234801561001057600080fd5b50610e92806100206000396000f3fe60806040526004361061003f5760003560e01c806327506f53146100445780632e7700f01461006f5780639ace38c21461009a578063cc2d7ead146100dc575b600080fd5b34801561005057600080fd5b506100596100f8565b6040516100669190610b4b565b60405180910390f35b34801561007b57600080fd5b5061008461033b565b6040516100919190610b6d565b60405180910390f35b3480156100a657600080fd5b506100c160048036038101906100bc919061086e565b610344565b6040516100d396959493929190610adc565b60405180910390f35b6100f660048036038101906100f191906107db565b6104e0565b005b60606001805480602002602001604051908101604052809291908181526020016000905b8282101561033257838290600052602060002090600602016040518060c00160405290816000820160009054906101000a900473ffffffffffffffffffffffffffffffffffffffff1673ffffffffffffffffffffffffffffffffffffffff1673ffffffffffffffffffffffffffffffffffffffff1681526020016001820160009054906101000a900473ffffffffffffffffffffffffffffffffffffffff1673ffffffffffffffffffffffffffffffffffffffff1673ffffffffffffffffffffffffffffffffffffffff1681526020016002820154815260200160038201805461020590610d15565b80601f016020809104026020016040519081016040528092919081815260200182805461023190610d15565b801561027e5780601f106102535761010080835404028352916020019161027e565b820191906000526020600020905b81548152906001019060200180831161026157829003601f168201915b50505050508152602001600482015481526020016005820180546102a190610d15565b80601f01602080910402602001604051908101604052809291908181526020018280546102cd90610d15565b801561031a5780601f106102ef5761010080835404028352916020019161031a565b820191906000526020600020905b8154815290600101906020018083116102fd57829003601f168201915b5050505050815250508152602001906001019061011c565b50505050905090565b60008054905090565b6001818154811061035457600080fd5b90600052602060002090600602016000915090508060000160009054906101000a900473ffffffffffffffffffffffffffffffffffffffff16908060010160009054906101000a900473ffffffffffffffffffffffffffffffffffffffff16908060020154908060030180546103c990610d15565b80601f01602080910402602001604051908101604052809291908181526020018280546103f590610d15565b80156104425780601f1061041757610100808354040283529160200191610442565b820191906000526020600020905b81548152906001019060200180831161042557829003601f168201915b50505050509080600401549080600501805461045d90610d15565b80601f016020809104026020016040519081016040528092919081815260200182805461048990610d15565b80156104d65780601f106104ab576101008083540402835291602001916104d6565b820191906000526020600020905b8154815290600101906020018083116104b957829003601f168201915b5050505050905086565b6000808154809291906104f290610d47565b919050555060006040518060c001604052803373ffffffffffffffffffffffffffffffffffffffff1681526020018673ffffffffffffffffffffffffffffffffffffffff168152602001858152602001848152602001428152602001838152509050600181908060018154018082558091505060019003906000526020600020906006020160009091909190915060008201518160000160006101000a81548173ffffffffffffffffffffffffffffffffffffffff021916908373ffffffffffffffffffffffffffffffffffffffff16021790555060208201518160010160006101000a81548173ffffffffffffffffffffffffffffffffffffffff021916908373ffffffffffffffffffffffffffffffffffffffff1602179055506040820151816002015560608201518160030190805190602001906106349291906106a6565b506080820151816004015560a082015181600501908051906020019061065b9291906106a6565b5050507f416cfa4330a4565f45c2fd2dd4826a83a37443aba2ce6f79477c7355afac35fa33868686428760405161069796959493929190610a6d565b60405180910390a15050505050565b8280546106b290610d15565b90600052602060002090601f0160209004810192826106d4576000855561071b565b82601f106106ed57805160ff191683800117855561071b565b8280016001018555821561071b579182015b8281111561071a5782518255916020019190600101906106ff565b5b509050610728919061072c565b5090565b5b8082111561074557600081600090555060010161072d565b5090565b600061075c61075784610bb9565b610b88565b90508281526020810184848401111561077457600080fd5b61077f848285610cd3565b509392505050565b60008135905061079681610e2e565b92915050565b600082601f8301126107ad57600080fd5b81356107bd848260208601610749565b91505092915050565b6000813590506107d581610e45565b92915050565b600080600080608085870312156107f157600080fd5b60006107ff87828801610787565b9450506020610810878288016107c6565b935050604085013567ffffffffffffffff81111561082d57600080fd5b6108398782880161079c565b925050606085013567ffffffffffffffff81111561085657600080fd5b6108628782880161079c565b91505092959194509250565b60006020828403121561088057600080fd5b600061088e848285016107c6565b91505092915050565b60006108a383836109bf565b905092915050565b6108b481610c9d565b82525050565b6108c381610c4f565b82525050565b6108d281610c4f565b82525050565b60006108e382610bf9565b6108ed8185610c1c565b9350836020820285016108ff85610be9565b8060005b8581101561093b578484038952815161091c8582610897565b945061092783610c0f565b925060208a01995050600181019050610903565b50829750879550505050505092915050565b600061095882610c04565b6109628185610c2d565b9350610972818560208601610ce2565b61097b81610e1d565b840191505092915050565b600061099182610c04565b61099b8185610c3e565b93506109ab818560208601610ce2565b6109b481610e1d565b840191505092915050565b600060c0830160008301516109d760008601826108ba565b5060208301516109ea60208601826108ba565b5060408301516109fd6040860182610a4f565b5060608301518482036060860152610a15828261094d565b9150506080830151610a2a6080860182610a4f565b5060a083015184820360a0860152610a42828261094d565b9150508091505092915050565b610a5881610c93565b82525050565b610a6781610c93565b82525050565b600060c082019050610a8260008301896108c9565b610a8f60208301886108ab565b610a9c6040830187610a5e565b8181036060830152610aae8186610986565b9050610abd6080830185610a5e565b81810360a0830152610acf8184610986565b9050979650505050505050565b600060c082019050610af160008301896108c9565b610afe60208301886108c9565b610b0b6040830187610a5e565b8181036060830152610b1d8186610986565b9050610b2c6080830185610a5e565b81810360a0830152610b3e8184610986565b9050979650505050505050565b60006020820190508181036000830152610b6581846108d8565b905092915050565b6000602082019050610b826000830184610a5e565b92915050565b6000604051905081810181811067ffffffffffffffff82111715610baf57610bae610dee565b5b8060405250919050565b600067ffffffffffffffff821115610bd457610bd3610dee565b5b601f19601f8301169050602081019050919050565b6000819050602082019050919050565b600081519050919050565b600081519050919050565b6000602082019050919050565b600082825260208201905092915050565b600082825260208201905092915050565b600082825260208201905092915050565b6000610c5a82610c73565b9050919050565b6000610c6c82610c73565b9050919050565b600073ffffffffffffffffffffffffffffffffffffffff82169050919050565b6000819050919050565b6000610ca882610caf565b9050919050565b6000610cba82610cc1565b9050919050565b6000610ccc82610c73565b9050919050565b82818337600083830152505050565b60005b83811015610d00578082015181840152602081019050610ce5565b83811115610d0f576000848401525b50505050565b60006002820490506001821680610d2d57607f821691505b60208210811415610d4157610d40610dbf565b5b50919050565b6000610d5282610c93565b91507fffffffffffffffffffffffffffffffffffffffffffffffffffffffffffffffff821415610d8557610d84610d90565b5b600182019050919050565b7f4e487b7100000000000000000000000000000000000000000000000000000000600052601160045260246000fd5b7f4e487b7100000000000000000000000000000000000000000000000000000000600052602260045260246000fd5b7f4e487b7100000000000000000000000000000000000000000000000000000000600052604160045260246000fd5b6000601f19601f8301169050919050565b610e3781610c61565b8114610e4257600080fd5b50565b610e4e81610c93565b8114610e5957600080fd5b5056fea26469706673582212202176677c40565af69c74c3c457cca6fb37e5c49137584fe6820021d3752f71eb64736f6c63430008000033",
  "linkReferences": {},
  "deployedLinkReferences": {}
}